:020000040800F2
:10000000E8040020010100088114000871130008B1
:100010007D1400085D040008A5160008000000001B
:10002000000000000000000000000000891400082B
:10003000790400080000000085140008D1150008AC
:100040001B0100081B0100081B0100081B01000820
:100050001B0100081B0100081B0100081B01000810
:100060001B0100081B0100081B0100081B01000800
:100070001B0100081B010008610400086D04000852
:100080001B0100081B0100081B0100081B010008E0
:100090001B0100081B0100081B0100081B010008D0
:1000A0001B0100081B0100081B0100081B010008C0
:1000B0001B0100081B0100081B0100081B010008B0
:1000C0001B0100081B0100081B0100081B010008A0
:1000D0001B0100081B0100081B0100081B01000890
:1000E0001B0100081B0100081B010008DFF80CD0F1
:1000F00000F092F900480047A9160008E804002023
:100100000648804706480047FEE7FEE7FEE7FEE7B1
:10011000FEE7FEE7FEE7FEE7FEE7FEE7D51500088F
:10012000ED0000082DE9FE4F81EA030404F00044CD
:1001300021F0004100944FF0000B23F0004350EAFF
:1001400001045ED052EA03045BD0C3F30A54C1F346
:100150000A552C44A4F2F3340194A0FB0254C1F3D9
:10016000130141F48011C3F3130343F4801301FB23
:10017000024400FB034E840A970A44EA815447EA8A
:100180008357A4FB076802958D0A05FB07854FEA94
:10019000932C04FB0C542705029D4FEA065847EAAE
:1001A0001637B5EB08056EEB070C870E920E47EA83
:1001B000811742EA8312A7FB0201B6EB0B0164EB45
:1001C00000042B0D43EA0C335E1844EB1C50DA4656
:1001D0005146E7FB0201C5F313044FEA0B3343EA30
:1001E00014534FEA0432019C43EA0603A4F10C04C1
:1001F0000294009CCDE900B400F0C0F803B0BDE863
:10020000F08F00200146F9E72DE9F04D81EA030463
:1002100004F0004B21F0004514464FF0000A23F093
:10022000004150EA050220D054EA01021DD0C5F376
:100230000A570246C5F31303C1F31300C1F30A566C
:1002400040F4801543F48013A7EB0608101BD64634
:1002500008F2FD3873EB050002D308F1010801E054
:1002600092185B41B8F1000F03DA00200146BDE8A7
:10027000F08D00204FF48011064684460EE0171BD7
:1002800073EB050705D3121B63EB050306434CEA2A
:10029000010C49084FEA300092185B4150EA01070F
:1002A000EDD152EA030012D082EA040083EA05018C
:1002B000084305D0101BAB4106D20122002306E003
:1002C00000224FF0004302E06FF0010253101AEBDE
:1002D00006004CEB085110EB0A0041EB0B01BDE8A6
:1002E000F04D00F03CB80EB540F2334102910021D0
:1002F000CDE900110A460B4600F040F803B000BDFE
:1003000070B5C1F30A5201F000450024C1F3130196
:1003100040F2FF3341F480119A4201DA002070BDAF
:1003200040F233439A42A2F2334203DC524200F0DD
:1003300006F800E090402C43F1D0404270BD202AE6
:1003400004DB203A21FA02F00021704721FA02F37F
:10035000D040C2F12002914008431946704710B5C1
:10036000141E73F1000408DA401C41F100019218D8
:100370005B411A4301D120F0010010BD2DE9F04D81
:1003800092469B4611B1B1FA81F202E0B0FA80F2D6
:100390002032904600F052F804460F4640EA0A0028
:1003A00041EA0B0153465A46084313D0114653EA1B
:1003B000010019D0C8F140025046FFF7C0FF0546C2
:1003C0000E4650465946424600F038F8084305D0DC
:1003D000012004E020463946BDE8F08D00200543A9
:1003E00046EAE0762C4337430A986305E40AA0EB1B
:1003F00008000022FD0A44EA47540A3002D50020D2
:100400000146E9E7010510196941DDE908450019D0
:100410006941BDE8F04DA2E7064C074D06E0E068F3
:1004200040F0010394E8070098471034AC42F6D33B
:10043000FFF760FE9C170008BC170008202A04DBA9
:10044000203A00FA02F1002070479140C2F12003E7
:1004500020FA03F31943904070470000FEE70000C4
:1004600040F25800C2F2000000F00EB840F2140052
:10047000C2F2000000F008B870470000EFF31080EF
:1004800072B600BFFEE7000010B5D0E90FCE0168DC
:10049000DCF800300A6823FA0EF35C072AD512F064
:1004A000040427D00A68920603D40A6822F00402E2
:1004B0000A602F22C4F20202914240F20402C4F206
:1004C000020259DD3023C4F20203994270D0442362
:1004D000C4F20203994271D05823C4F20203994234
:1004E00078D14FF480231360C16A002940F09780CF
:1004F0006EE000BF9C0727D512F0020424D00A68E2
:10050000920606D40A6822F00A020A60012280F8E4
:1005100021202F22C4F20202914240F20402C4F2CE
:10052000020239DD3023C4F2020399425ED0442333
:10053000C4F2020399425DD05823C4F202039942E7
:100540005ED14FF4003363E01B0741D512F008027F
:1005500008BF10BD0A6822F00E020A60012101FAEC
:100560000EF2CCF804208163016B4FF480720029F5
:10057000028454D12CE000BF0823C4F20203994244
:1005800022D01C23C4F20203994223D140231360DA
:10059000C16A002943D11BE00823C4F20203994237
:1005A0002CD01C23C4F20203994229D120232FE02E
:1005B0004FF480631360C16A89BB09E04FF4804344
:1005C0001360C16A59BB03E004231360C16A31BBE5
:1005D00010BD00BF02F168044FF08063A14208BF64
:1005E0004FF480031360C16AC9B9F1E74FF4007397
:1005F0000EE000BF4FF400530AE000BF022307E003
:1006000002F168044FF00073A14208BF4FF40013D9
:100610001360816A0022002980F82020D8D0BDE82C
:1006200010400847002804BF012070472DE9F04121
:1006300001684FF6F872CBF6FD724CF6CD430A44D2
:10064000CCF6CC43A2FB03236FF0030707EA930326
:100650000027C4F2020700F1040E00F11008C0E9FF
:100660000F739EE8045098E870010B6843F6F0772A
:10067000BB431A4342EA0C0242EA0E0222432A43D7
:10068000324342EA08020A6000214FF4807281631B
:100690000284BDE8F041084670470000F0B590F8CC
:1006A00020C0BCF1010F32D090F821C04FF0010EF4
:1006B000BCF1010F80F820E026D14FF0020C80F849
:1006C00021C04FF0000CC0F838C0D0E900C4C56AA2
:1006D000C66BDCF80070102C27F00107CCF8007016
:1006E000006C0EFA00F070600846CCF8043004BFCD
:1006F00010460A46CCF80800CCF80C20DCF80000C4
:1007000045B140F00E000DE0002180F820100220DD
:10071000F0BD00BF20F00400CCF80000DCF80000C1
:1007200040F00A00CCF80000DCF8000040F00100C6
:10073000CCF800000020F0BDB0B5044600F024F96C
:10074000054640F20000C2F200000078611C18BFAC
:10075000044400BF00F018F9401BA042FAD3B0BD1A
:100760002DE9F04F82B00E68002E00F0038140F2B8
:100770000C4C41F200424FF6FF7EC4F2010CC4F271
:100780000102042700240123C1F2100E4FF0000AD9
:100790004FF00009904208BF0327009745E000BFD3
:1007A000012704F00C030F229A402BEA020207FAF9
:1007B00003F34FEA9A051A4346F82520D1F804B00E
:1007C00040F20045C4F201055FEACB322A6854BF0B
:1007D00022EA080242EA08022A606A685FEA8B336A
:1007E00054BF22EA080242EA08026A605FEACB23A9
:1007F000AA6854BF22EA080242EA08025FEA8B2391
:10080000AA60DCF800204FF0010354BF22EA08027E
:1008100042EA0802CCF800200E680AF1010A36FA12
:100820000AF204F1040400F0A58003FA0AF816EABB
:10083000080FF1D04E68764512DC122E56D8DFE84C
:1008400006F0350B45495555555555555555555592
:100850005555554D510000BFD1F80C9046E000BFF2
:100860004FF6FF72C1F2210296420FDC0022C1F264
:10087000110296421AD00022C1F21202964215D0FD
:100880000022C1F22102964210D02FE00022C1F2D4
:10089000220296420AD00022C1F23102964205D0CD
:1008A0000022C1F23202964220D100BF8A684AB1CA
:1008B000012A14BFC0F81480C0F810804FF0080956
:1008C00014E000BF4FF0040910E000BFCA6802F155
:1008D00008090BE04FF0000908E000BFCA6802F108
:1008E000040903E0CA6802F10C0900BF224606466B
:1008F000BAF1080F24BF203A043637680F25954017
:1009000027EA050509FA02F22A433260CA79D206BB
:100910007FF582AF41F21803C4F202031A6842F075
:1009200001021A601A6802F001020192019A40F273
:100930000042C4F20102A2F57E762AF0030256F8C4
:1009400002B040F60002C4F20102904210D040F61C
:100950000042C4F2010290423FF422AF41F2000291
:10096000C4F20102009F904208BF022719E700BFAE
:10097000002716E702B0BDE8F08F0000002A08BF8C
:10098000090401617047000040F2E000C2F200007B
:100990000068704740F2000040F2E001C2F200003F
:1009A000C2F2000100780A68104408607047000035
:1009B00080B542F20000C4F20200016841F010016B
:1009C0000160032000F08EF80F2000F005F800F021
:1009D00027F8002080BD000070B540F20006C2F28A
:1009E000000640F208013278C2F200014FF47A7337
:1009F0000968B3FBF2F20446B1FBF2F1084600F0DD
:100A000063FB0F2C4FF0010508D838B94FF0FF30C9
:100A100021460022002500F039F87460284670BD98
:100A200082B041F21800C4F202000168022241F0D3
:100A300001010160016801F0010101910199416822
:100A400041F080514160406800F080500090009873
:100A50000420C4F20100016862F31A61016002B06F
:100A600070470000002848BF7047C1B200F01F0067
:100A7000012202FA00F04EF20012CEF2000242EA27
:100A8000D10121F0030108607047000010B54EF657
:100A90000C5CCEF2000CDCF80030C3F3022E8EF0BA
:100AA0000704042C28BF0424BEF103034FF0FF3ECB
:100AB0000EFA04F438BF0023A14399400EFA03F361
:100AC0009A43114300F00F0200F160430901043A18
:100AD00003F564436244002848BF02F10C03197017
:100AE00010BD00004EF60C51CEF200010A684FF620
:100AF000FF031A4060F30A2242F0806040F0FD706C
:100B0000086070472DE9F04381B0002800F085802F
:100B100042F20008C4F202080446D8F800000D466C
:100B200000F0070088420CD2D8F8000020F007003F
:100B30002843C8F80000D8F8000000F00700A842D9
:100B40006BD1206841F204098107C4F2020917D56C
:100B5000410705D5D9F8001041F4E061C9F800104B
:100B6000010705D5D9F8001041F46051C9F800100B
:100B7000D9F80010A26821F0F0011143C9F8001063
:100B8000C00741D1D8F8000000F00700A8420CD9F6
:100B9000D8F8000020F007002843C8F80000D8F873
:100BA000000000F00700A84237D12068410707D5B0
:100BB000D9F80010E26821F4E0611143C9F800108F
:100BC000000708D5D9F80000216920F4605040EAF8
:100BD000C100C9F80000D9F8002002F00C00082874
:100BE00041F20020C0F27A0050D141F28A73C2F380
:100BF0008341C0F60003595CD2033BD440F6001099
:100C0000C0F23D00484341E0606802280AD0012854
:100C10002AD159F8041C890308D4012001B0BDE889
:100C2000F08300BF59F8041C8901F6D5D9F80010EB
:100C300021F003010843C9F80000FFF7A5FE0646AE
:100C400041F28837D9F80000616800F00C00B0EB81
:100C5000810F97D0FFF798FE801BB842F2D903208E
:100C600001B0BDE8F08300BF59F8041C8907D4D552
:100C7000DCE700BFD9F8002041F27073C2F34042B4
:100C8000C0F600039A5C4843B0FBF2F0D9F80010BC
:100C900041F27272C1F30311C0F60002515C40F2DE
:100CA000080220FA01F140F20400C2F200000068DC
:100CB000C2F200021160FFF78FFE002001B0BDE814
:100CC000F083000040F2080041F20401C2F200008B
:100CD000C4F202010068096841F28272C1F3022184
:100CE000C0F60002515CC8407047000040F20800A6
:100CF00041F20401C2F20000C4F202010068096876
:100D000041F28272C1F3C221C0F60002515CC840B8
:100D1000704700002DE9F04182B0002868D00446F9
:100D2000007841F20006C007C4F2020625D07068C0
:100D300000F00C0004281BD0706800F00C0008289C
:100D400002D17068C00313D46068002800F0688185
:100D5000B0F5A02F00F07C81B0F5803F00F07C81E1
:100D6000306820F480303060306820F4802076E1F4
:100D70003068800301D56068D0B32078800718D52B
:100D8000706810F00C0F07D0706800F00C00082895
:100D90006ED17068C0036BD43068800702D52069BB
:100DA000012825D13068616920F0F80040EAC100CF
:100DB0003060207800071FD42078400732D4E569DE
:100DC00095B1706800F00C00082840F08F80012D6C
:100DD0000ED07068216A00F480328A4208D1616ABC
:100DE00000F47010884203D1002002B0BDE8F08109
:100DF000012002B0BDE8F081A069002862D0002087
:100E0000C4F242200121C0F88014FFF7BDFD054661
:100E1000706A800700F18C80FFF7B6FD401B022846
:100E2000F6D92AE1F06910F0805808D1F06940F055
:100E30008050F061F06900F080500090009847F217
:100E40000007C4F200073868C00529D4386840F4A8
:100E500080703860FFF798FD054600BF3868C00510
:100E60001ED4FFF791FD401B6428F7D905E100BFB0
:100E70002069002840F20000C4F2422000F0828085
:100E800001210160FFF780FD054600BF3068800743
:100E90003FF588AFFFF778FD401B0228F6D9ECE05C
:100EA000E068002800F08080052800F09780012885
:100EB00000F09880306A20F001003062306A20F043
:100EC000040092E00020C4F242200021C0F8801407
:100ED000FFF75AFD054600BF706A80077FF56CAFCB
:100EE000FFF752FD401B0228F6D9C6E00027C4F2E6
:100EF000422700203866FFF747FD022D05460BD13B
:100F00003068800140F1BE80FFF73EFD401B0228A3
:100F10004FF00300F4D968E7306880017FF564AFD3
:100F2000FFF732FD401B02284FF00300F4D95CE7C5
:100F300040F20800C2F20000006844F6D351C1F24A
:100F40006201A0FB0101480A019000BF00BF0198A7
:100F5000411E002801913FF42FAF00BF0198411EB0
:100F6000002801913FF428AF00BF0198411E0028DE
:100F700001913FF421AF00BF0198411E002801916B
:100F8000E4D119E700210160FFF7FEFC054600BF30
:100F9000306880077FF50DAFFFF7F6FC401B022895
:100FA0004FF00300F4D920E7306A20F001003062EE
:100FB000306A20F004003062FFF7E6FC054641F29B
:100FC000883700BF306A800720D5FFF7DDFC401B63
:100FD000B8424FF00300F5D907E700BF306A40F090
:100FE00004003062306A40F001003062FFF7CCFC50
:100FF000054641F2883700BF306A800706D4FFF704
:10100000C3FC401BB842F7D937E000BFB8F1000F6E
:101010007FF4D5AEF06920F08050F061CFE600BFDC
:10102000306820F480303060306820F480203060F8
:10103000FFF7AAFC054600BF306880037FF59DAE30
:10104000FFF7A2FC401B64284FF00300F4D9CCE664
:10105000306840F480203060306840F48030306088
:10106000FFF792FC054600BF306880033FF585AE70
:10107000FFF78AFC401B6428F6D9032002B0BDE8C4
:10108000F08100BF206AB0F5803F05D17168A26889
:1010900021F40031114371607168626A21F47411A6
:1010A00011430843706001203866FFF76DFC044669
:1010B000306880013FF598AEFFF766FC001B022800
:1010C0004FF00300F4D990E6411E0020B0EB116F01
:1010D0001CBF012070474EF21002CEF20002516098
:1010E0004EF62351CEF20001F0230B7007219060E1
:1010F000116070477047000070470000002804BF6F
:101100000120704710B5044690F83D0028B9002032
:1011100084F83C00204600F061F8242084F83D006B
:101120002068D4E90212C36823F40053C360036942
:1011300023F440531A430261D4E904231143C268E3
:10114000194341F20C639A431143C1604169A2699A
:1011500021F44071114343F60002C4F201029042AF
:10116000416103D0FFF7AEFD02E000BFFFF7BEFD17
:101170006268192148439100B0FBF1F048F21F5119
:10118000C5F2EB11A0FB01235A094FF69C73C0F680
:10119000FF7302FB0300322303EB0010A0FB0101ED
:1011A000F02303EA5113206803EB0212C1F3431149
:1011B00011448160016921F490410161416921F08C
:1011C0002A014161C16841F40051C1600020202121
:1011D000206484F83D1084F83E1010BD2DE9F041E4
:1011E00086B040F600050446C4F20105006805F526
:1011F000405100278842049702D006B0BDE8F08134
:1012000041F21800C4F20200016802AE41F48041CC
:101210000160016840F2440801F4804101910199A4
:101220000168C4F2020841F004010160006831461F
:1012300000F00400019001984FF400700290022029
:101240000390032005902846FFF78AFA4FF4806048
:10125000CDE90207284631460497FFF781FA40F2AC
:10126000140508F11400C2F200058026C5E9000744
:101270002846C5E90276C5E90477C5E90677FFF790
:10128000D1F9002818BFFFF7F9F8A5636C6240F2A6
:101290005805C2F2000510200021C5E9008028464B
:1012A000C5E90216C5E90411C5E90611FFF7BAF947
:1012B000002818BFFFF7E2F865636C6206B0BDE86E
:1012C000F081000070B582B0054690F83E002028FD
:1012D0000ED113460A4600294FF0010418BF002B17
:1012E00002D1204602B070BD95F83C00012803D120
:1012F0000224204602B070BD012085F83C00002485
:1013000022202C63AA62AB852C6485F83E002968F4
:10131000A86B41F2456C41F2916E41F2D956C0F68C
:10132000000CC0F6000EC0F600060431C0E90ACE7B
:10133000C0E90C64FFF7B2F90194286801680191D3
:1013400041680191019985F83C40C16841F4807180
:10135000C160416941F001014161416941F04001D1
:101360004161204602B070BD704700007047000028
:10137000FEE7000080B582B041F21400C4F2020022
:101380000168002241F0010101600068002100F0C5
:101390000100019001980E20FFF778FB0E20FFF767
:1013A00061FB0F2000210022FFF770FB0F2002B02D
:1013B000BDE88040FFF756BBB0B584B041F21800DD
:1013C000C4F20200016840F6004441F010010160DF
:1013D0000168C4F2010401F0100100910099016854
:1013E000002241F02001016001684FF4704501F0D6
:1013F000200100910099016841F008010160016835
:1014000001F0080100910099016841F004010160B8
:1014100000684FF4704100F00400009000982046EE
:10142000FFF7ACFA01200190022002900320039004
:10143000694620460095FFF793F904B0B0BD00005F
:1014400080B540F29C0043F60001C2F20000C4F2F5
:10145000010100234FF00C0C4FF4165280E80E00EF
:10146000C0E90333C0E905C3C361FFF747FE0028A5
:1014700008BF80BDBDE88040FFF700B8FEE7000070
:10148000FEE7000070470000704700002DE9F043C0
:1014900081B040F21009C2F20009044699F8000038
:1014A000012C03D1E0B3013889F80000C0B207284D
:1014B00004D94CB301B0BDE8F08300BF1BA10A5CA6
:1014C0001CA10D5C1DA140F600470E5C1DA1C4F2DD
:1014D000010711F8008038464FF48051FFF74EFAAB
:1014E00038464FF400512A46FFF748FA38464FF481
:1014F00080413246FFF742FA38464FF400414246F7
:10150000FFF73CFA002CD5D199F80000411CC8B275
:10151000083818BF084689F8000001B0BDE8F0831C
:10152000082089F8000001B0BDE8F0830101000047
:1015300000000001000101010000000000000001A6
:10154000010100000000000000010101B0B50C46DF
:10155000FEF7C9FE48F20003C4F216030022FEF7AC
:1015600053FE0023C4F250030022FEF7DBFDFEF71A
:10157000C7FE0128B8BFB0BD054600BF2046FFF733
:1015800085FF0120FFF7D8F8013DF7D1B0BD00007D
:1015900010B540F60044C4F2010420464FF48051D7
:1015A0000022FFF7EBF920464FF400510022FFF72D
:1015B000E5F920464FF480410022FFF7DFF920468D
:1015C0004FF400410022BDE81040FFF7D7B90000FA
:1015D000FFF7E0B970470000406A01684A6990F877
:1015E0003D30212B0BD112F0800208D00022C284A2
:1015F000CA6822F0C002CA60202280F83D204A69F1
:1016000090F83E30222B17D112F0400214D0002265
:10161000C285CB6823F49073CB604B6923F0010340
:101620004B61036B012B03D1CB6823F01003CB601C
:10163000202180F83E100263016C41F0100101642A
:10164000FFF75ABD0168406A0968890618D400216D
:10165000C1850168CA6822F48072CA604A6922F0B2
:1016600001024A614A6922F040024A61202280F860
:101670003E20026B012A03D1CA6822F01002CA6020
:10168000016B012918BFFFF76FBE818DFFF732BDD7
:10169000406A016B012918BFFFF768BE818D4908B8
:1016A000FFF728BDFEE7000090B0FFF781F90024A6
:1016B0000120CDE90B44CDE9094406900A904FF48E
:1016C000E0104FF4803102250F9006A8CDE90714F1
:1016D000CDE90D51FFF71EFB20B1EFF3108072B67C
:1016E000FEE700BF0F20CDE901054FF48060CDE992
:1016F000040401A802210394FFF704FA20B1EFF3D8
:10170000108072B6FEE700BFFFF756FEFFF732FE0D
:10171000FFF796FE40F29C04C2F2000406AD3027AB
:1017200009E000BF4FF487603146FFF70FFFFFF776
:101730002FFF8DF818702046294601220126FFF759
:10174000C1FD9DF818003128ECD03228F1D10026D7
:10175000E8E702E008C8121F08C1002AFAD1704762
:101760007047002001E001C1121F002AFBD1704721
:10177000010200000000000000000102030406074F
:101780000809000000000102030402030405060723
:1017900008090A0B0C0D0E0F10100000C0170008EE
:1017A000000000201000000052170008D0170008A9
:1017B00010000020D804000062170008000000009C
:1017C00001000000100000000024F40000000000F0
:04000005080000ED02
:00000001FF
